S00C00006D61696E2E7372656373
S11300000C942A000C9410060C9456060C94470089
S11300100C9447000C9447000C9447000C94B007D0
S11300200C9447000C9447000C9447000C949C06D5
S11300300C9447000C9447000C9447000C94470020
S11300400C9447000C9447000C9447000C94470010
S11300500C94470011241FBECFE5D8E0DEBFCDBF0E
S113006010E0A0E6B0E0ECE5F5E102C005900D92E9
S1130070AE37B107D9F710E0AEE7B0E001C01D928A
S1130080AB3DB107E1F70E94DF050C94AC0A0C9478
S1130090000081E061E041E00E94170181E062E03C
S11300A041E00E9417018BB36FEF0E94060108958F
S11300B06AE070E00E945B0A80939300CB0164E6DF
S11300C070E00E945B0A809394000895CF93DF93BD
S11300D080916C0090916D000E9458008091940072
S11300E0C0E6D0E0FE01E80FF11D80818295807F9B
S11300F08BBB81E062E041E00E94AD0183EC99E0BA
S11301000197F1F700C0000081E062E040E00E9446
S1130110AD0180919300C80FD11D88818295807FA5
S11301208BBB81E061E041E00E94AD0183EC99E08A
S11301300197F1F700C0000081E061E040E00E9417
S1130140AD01DF91CF91089581E061E040E00E942C
S1130150AD0181E062E040E00E94AD01089505C078
S113016080916A008F5F80936A008AB786FD03C01E
S11301700AB607FEF5CF08953E9A3F9838983D9801
S1130180359A309A319A329A3398379A0895369A32
S113019086B184FFFDCF44B155B124EF31E0429FD5
S11301A0C001439F900D529F900D1124892F869575
S11301B0869580937E0010927F00089582E062E02D
S11301C041E00E9417010895882341F0813059F4D9
S11301D082E062E041E00E94AD01089582E062E0C5
S11301E040E00E94AD010895CF93DF930F92CDB705
S11301F0DEB7198282E062E0AE014F5F5F4F0E947A
S11302004B0289810F90DF91CF910895813049F09D
S1130210813028F0823039F0833041F406C06ABB63
S1130220089567BB089564BB089561BB0895442392
S113023009F441C0413009F07EC08130A9F0813019
S113024030F08230F1F0833009F075C027C02AB352
S113025081E090E0AC0102C0440F551F6A95E2F7BB
S1130260BA01622B6ABB089527B381E090E0AC0128
S113027002C0440F551F6A95E2F7BA01622B67BBAF
S1130280089524B381E090E0AC0102C0440F551FEF
S11302906A95E2F7BA01622B64BB089521B381E049
S11302A090E0AC0102C0440F551F6A95E2F7BA0111
S11302B0622B61BB08958130A9F0813028F082302F
S11302C0F9F08330C1F52AC02AB381E090E0AC0193
S11302D002C0440F551F6A95E2F7BA016095622384
S11302E06ABB089527B381E090E0AC0102C0440FDB
S11302F0551F6A95E2F7BA016095622367BB0895BA
S113030024B381E090E0AC0102C0440F551F6A950C
S1130310E2F7BA016095622364BB089521B381E0DA
S113032090E0AC0102C0440F551F6A95E2F7BA0190
S11303306095622361BB0895813049F0813028F0D3
S1130340823039F0833041F406C06BBB089568BB3A
S1130350089565BB089562BB0895442309F441C020
S1130360413009F07EC08130A9F0813030F0823014
S1130370F1F0833009F075C027C02BB381E090E021
S1130380AC0102C0440F551F6A95E2F7BA01622B13
S11303906BBB089528B381E090E0AC0102C0440F28
S11303A0551F6A95E2F7BA01622B68BB089525B31D
S11303B081E090E0AC0102C0440F551F6A95E2F75A
S11303C0BA01622B65BB089522B381E090E0AC01D1
S11303D002C0440F551F6A95E2F7BA01622B62BB53
S11303E008958130A9F0813028F08230F9F083300B
S11303F0C1F52AC02BB381E090E0AC0102C0440FE8
S1130400551F6A95E2F7BA01609562236BBB0895A4
S113041028B381E090E0AC0102C0440F551F6A95F7
S1130420E2F7BA016095622368BB089525B381E0C1
S113043090E0AC0102C0440F551F6A95E2F7BA017F
S11304406095622365BB089522B381E090E0AC011E
S113045002C0440F551F6A95E2F7BA016095622302
S113046062BB0895813059F0813028F0823059F010
S1130470833081F40CC089B3FB018083089586B373
S1130480FB018083089583B3FB018083089580B3C7
S1130490FB01808308958130A1F0813028F08230FF
S11304A0E9F08330A1F527C089B390E09C0102C034
S11304B0359527956A95E2F7B9016170FA01608371
S11304C0089586B390E09C0102C0359527956A95FE
S11304D0E2F7B9016170FA016083089583B390E093
S11304E09C0102C0359527956A95E2F7B9016170C0
S11304F0FA016083089580B390E09C0102C03595B1
S113050027956A95E2F7B9016170FA01608308954D
S11305108130A1F0813028F08230E9F08330A1F5F8
S113052027C02BB381E090E0AC0102C0440F551FFB
S11305306A95E2F7BA0162276BBB089528B381E09C
S113054090E0AC0102C0440F551F6A95E2F7BA016E
S1130550622768BB089525B381E090E0AC0102C036
S1130560440F551F6A95E2F7BA01622765BB0895E7
S113057022B381E090E0AC0102C0440F551F6A959C
S1130580E2F7BA01622762BB089580E00E9441034A
S11305900895CF93DF93C82FD62F0E94570380EA84
S11305A00E946E038D2F0E946E038C2F0E946E0397
S11305B00E946403DF91CF910895CF93C82F0E94C6
S11305C0570380EA0E946E038C2F0E946E030E94E0
S11305D0570381EA0E946E030E948703C82F0E947A
S11305E064038C2FCF9108958FB780688FBF0895CF
S11305F00E94F4028BB780648BBF85B7816085BF8E
S113060085B7826085BF08950E94F4028BB7806825
S11306108BBF85B7846085BF85B7886085BF089523
S11306200E94F4028BB780688BBF84B7806484BF58
S1130630089582E067E041E00E941701089588234D
S113064041F0813059F482E067E041E00E94AD015D
S1130650089582E067E040E00E94AD010895CF93E1
S1130660DF930F92CDB7DEB7198282E067E0AE0167
S11306704F5F5F4F0E944B0289810F90DF91CF91B2
S1130680089596B7946096BF98E490B911B88230F3
S113069031F0833031F0813031F4089A04C0099A82
S11306A002C0089A099A86B7806486BF089586B7FF
S11306B0806886BF86B7806286BF86B7846086BF3F
S11306C006B607FEFDCF089586B7806886BF86B755
S11306D0806186BF86B7846086BF089583B986B774
S11306E0806886BF86B7846086BF06B607FEFDCFE6
S11306F0089586B7806886BF86B7846086BF86B74C
S1130700806486BF06B607FEFDCF83B1089586B721
S1130710806886BF86B7846086BF06B607FEFDCFB5
S113072083B1089581B1887F0895CF93C82F81E064
S113073061E040E00E94AD0181E062E040E00E949F
S1130740AD0181E063E040E00E94AD018BB39C2FDA
S1130750907F8F70892B8BBB81E063E041E00E9426
S1130760AD018FE99FE00197F1F700C0000081E03F
S113077063E040E00E94AD018BB3C295C07F8F70EF
S1130780C82BCBBB81E063E041E00E94AD018FE95F
S11307909FE00197F1F700C0000081E063E040E0D2
S11307A00E94AD018FE19EE40197F1F700C00000C3
S11307B0CF91089581E061E041E00E94170181E05A
S11307C062E041E00E94170181E063E041E00E94A1
S11307D0170180E064E041E00E94170180E065E0D9
S11307E041E00E94170180E066E041E00E941701A9
S11307F080E067E041E00E9417018FEF91EEA4E0F2
S113080081509040A040E1F700C0000083E30E94C3
S1130810950382E30E94950388E20E9495038EE08B
S11308200E94950381E00E94950382E00E94950353
S11308300895CF93C82F81E061E041E00E94AD01AB
S113084081E062E040E00E94AD0181E063E040E0CD
S11308500E94AD018C2F807F8BBB81E063E041E07F
S11308600E94AD018FE99FE00197F1F700C00000FD
S113087081E063E040E00E94AD01C295C07FCBBB44
S113088081E063E041E00E94AD018FE99FE00197C0
S1130890F1F700C0000081E063E040E00E94AD0198
S11308A08FE19EE40197F1F700C00000CF91089515
S11308B00F931F93CF938C01FC018081882351F007
S11308C0C0E00E941904CF5FF801EC0FF11D808194
S11308D08823B9F7CF911F910F91089581E00E9469
S11308E095030895CF93DF9300D0CDB7DEB790E89A
S11308F0998390EC9A83FE01E80FF11D8181860FA4
S11309000E9495030F900F90DF91CF9108954F921D
S11309105F926F927F928F929F92AF92BF92CF928B
S1130920DF92EF92FF92CF93DF936B017C019923C7
S11309305CF48DE20E941904F094E094D094C09485
S1130940C11CD11CE11CF11CC114D104E104F1044B
S113095009F44FC081E090E0A0E0B0E00F2EFAE08F
S11309608F2EF0E09F2EF0E0AF2EF0E0BF2EF02DA2
S1130970BC01CD01A50194010E943C0A2B013C015C
S1130980C701B6010E946F0ADC01CB01840D951DDD
S1130990A61DB71DC22ED32EE42EF52EC114D104EC
S11309A0E104F10429F782309105A105B1050CF1A8
S11309B00F2EFAE04F2EF0E05F2EF0E06F2EF0E005
S11309C07F2EF02DBC01CD01A30192010E946F0A7C
S11309D0822EC32EC42FD52F862F805D0E9419042A
S11309E0882D9C2DAC2FBD2F82309105A105B1051A
S11309F04CF7DF91CF91FF90EF90DF90CF90BF90B5
S1130A00AF909F908F907F906F905F904F900895DC
S1130A108F929F92AF92BF92CF92DF92EF92FF920A
S1130A206B017C0120E030E0A9010E94EE088823DC
S1130A303CF48DE20E941904F7FAF094F7F8F0946C
S1130A40C701B60120E030E0A9010E94D5091816BB
S1130A507CF4C701B60120E030E040E85FE30E9487
S1130A60EE0888232CF460E070E0CB010E94870438
S1130A70C701B6010E94F7084B015C010E9487047C
S1130A808EE20E941904C501B4010E9423099B014E
S1130A90AC01C701B6010E948908462F572F682F61
S1130AA0792FCB01BA0120E030E048EC52E40E94F7
S1130AB0D9090E94F2080E948704FF90EF90DF900A
S1130AC0CF90BF90AF909F908F90089583E062E0A5
S1130AD041E00E941701089582E067E041E00E942E
S1130AE01701089582E067E00E948802089583E078
S1130AF062E041E00E94AD01089583E062E040E0DD
S1130B000E94AD01089583E062E00E948802089586
S1130B1083E063E040E00E94170183E063E041E08A
S1130B200E94AD010895CF93DF930F92CDB7DEB746
S1130B30198283E063E0AE014F5F5F4F0E944B0276
S1130B4089810F90DF91CF91089583E062E040E0C6
S1130B500E94170183E062E041E00E94AD01089524
S1130B60CF93DF930F92CDB7DEB7198283E062E0B3
S1130B70AE014F5F5F4F0E944B0289810F90DF915E
S1130B80CF91089581E064E040E00E94170181E084
S1130B9064E041E00E94AD010895CF93DF930F928A
S1130BA0CDB7DEB7198281E064E0AE014F5F5F4FDD
S1130BB00E944B0289810F90DF91CF9108950E948A
S1130BC0A2070E9455080E941A080E94DE000E9493
S1130BD019030E9488050E94A5050E94F8020E943C
S1130BE004030E94490086E690E060E070E042E37E
S1130BF050E00E9403078093800088E798E060E05B
S1130C0070E040E050E00E9403078EE598E060E069
S1130C1070E040E050E00E9403070E947207FDCF9D
S1130C201F920F920FB60F9211242F933F934F935D
S1130C305F936F937F938F939F93AF93BF93EF9340
S1130C40FF93809180000E944C0786E690E060E06C
S1130C5070E042E350E00E9403078093800080919B
S1130C6081000E944C070E94620880918E0082BF1E
S1130C700E945E0880916B00843238F08550809326
S1130C806B0080936C0010926D00FF91EF91BF9107
S1130C90AF919F918F917F916F915F914F913F9110
S1130CA02F910F900FBE0F901F9018951F920F92C7
S1130CB00FB60F9211242F933F934F935F936F932B
S1130CC07F938F939F93AF93BF93EF93FF93809101
S1130CD080000E944C0786E690E060E070E042E30A
S1130CE050E00E94030780938000809181000E945D
S1130CF04C070E94620880918E0082BF0E945E08A9
S1130D0080916B008B3438F48B5F80936B008093FD
S1130D106C0010926D00FF91EF91BF91AF919F9184
S1130D208F917F916F915F914F913F912F910F9090
S1130D300FBE0F901F9018951F920F920FB60F922F
S1130D4011242F933F934F935F936F937F938F93CC
S1130D509F93AF93BF93EF93FF9380918200909101
S1130D608300A0918400B09185000196A11DB11D5E
S1130D708093820090938300A0938400B0938500B5
S1130D8040918A0050918B0060918C0070918D008D
S1130D9084179507A607B70729F50E946208809172
S1130DA08E0082BF10928200109283001092840001
S1130DB010928500809180000E944C0786E690E0A6
S1130DC060E070E044E150E00E94030780938000FB
S1130DD08DE198E060E070E044E650E00E94030793
S1130DE080938100FF91EF91BF91AF919F918F917B
S1130DF07F916F915F914F913F912F910F900FBE13
S1130E000F901F901895EF92FF920F931F93CF931B
S1130E10DC017B018A0180919500909196000097F6
S1130E20F9F0ECE9F0E041E050E0842FBA012081D0
S1130E3031812115310541F04F5F5F4F37964B30BB
S1130E40510599F7C82F01C0C42FCA3061F48FE649
S1130E5090E00E94580481E0809386008C2F16C095
S1130E6060E070E080E09B01220F331F220F331FEC
S1130E70220F331F261B370BF901EB56FF4FB183AB
S1130E80A083F382E282158304831682CF911F919B
S1130E900F91FF90EF90089590E0FC01EE0FFF1F7B
S1130EA0EE0FFF1FEE0FFF1FE81BF90BEB56FF4F72
S1130EB0208131812115310511F480E00895FC0170
S1130EC0EE0FFF1FEE0FFF1FEE0FFF1FE81BF90BC6
S1130ED0EB56FF4F11821082158214821382128204
S1130EE016820895EF92FF921F93CF93DF93CBE97D
S1130EF0D0E00F2EFAEFEF2EFFEFFF2EF02DEC0EC9
S1130F00FD1E10E08881882379F0D701ED91FC91D2
S1130F100995888181508883F701848195810097A0
S1130F2019F4812F0E944C071F5F279687E090E0F9
S1130F30E80EF91E1A3031F7DF91CF911F91FF901F
S1130F40EF900895CF93C0E08C2F0E944C07CF5FA1
S1130F50CA30D1F7109286000E943F08CF910895BD
S1130F601F920F920FB60F9211242F933F934F931A
S1130F705F936F937F938F939F93AF93BF93CF931D
S1130F80DF93EF93FF9320916B0030E025503040C6
S1130F9080918700909188002817390730F081E00C
S1130FA00E941F0380E00E94E4002091870030919A
S1130FB088002B5F3F4F80916B0090E0821793076E
S1130FC030F480E00E941F0381E00E94E400E5E920
S1130FD0F0E0DF0116962BED30E0808191810097DF
S1130FE089F082819381009751F48C918F5F8C9367
S1130FF084819581009731F09383828303C00197A4
S11310009383828337961796E217F30731F7FF919C
S1131010EF91DF91CF91BF91AF919F918F917F918C
S11310206F915F914F913F912F910F900FBE0F9051
S11310301F9018950E94BC000895CF93CAE00E94A7
S1131040C700809187009091880020917E003091A4
S11310507F00820F931F9093880080938700C15074
S113106071F76AE070E00E945B0A609387007093F6
S1131070880060936C0070936D00CF91089589B7D8
S1131080806189BF8FB780688FBF8FB58FBD1DBC4E
S11310901CBC80E190E09BBD8ABD8DE08EBD0895AF
S11310A09093900080938F00089583B783BF89B78E
S11310B0816089BF8FB780688FBF089583B78560CB
S11310C083BF089583B78E7F83BF83B78D7F83BF2C
S11310D083B78B7F83BF089583B783BF12BE83B763
S11310E0856083BF08959093920080939100089542
S11310F083ED80938E0082BF82E391E0A0E0B0E0B4
S113110080938A0090938B00A0938C00B0938D0001
S113111008955058BB27AA270ED00DC1FED030F039
S113112003D120F031F49F3F11F41EF4F3C00EF408
S1131130E095E7FBE9C0E92F0FD180F3BA17620706
S113114073078407950718F071F49EF527C10EF410
S1131150E0950B2EBA2FA02D0B01B90190010C01C3
S1131160CA01A0011124FF27591B99F0593F50F4DB
S1131170503E68F11A16F040A22F232F342F442733
S1131180585FF3CF469537952795A795F04053952B
S1131190C9F77EF41F16BA0B620B730B840BBAF0FB
S11311A09150A1F0FF0FBB1F661F771F881FC2F766
S11311B00EC0BA0F621F731F841F48F4879577957A
S11311C06795B795F7959E3F08F0B3CF9395880F31
S11311D008F09927EE0F97958795089571D008F434
S11311E081E0089504D06894B111D9C00895BCD0A9
S11311F088F09F5790F0B92F9927B751A0F0D1F0FC
S1131200660F771F881F991F1AF0BA95C9F712C085
S1131210B13081F0C3D0B1E00895C0C0672F782FFA
S11312208827B85F39F0B93FCCF3869577956795F1
S1131230B395D9F73EF490958095709561957F4F5D
S11312408F4F9F4F0895E89409C097FB3EF4909503
S11312508095709561957F4F8F4F9F4F9923A9F08B
S1131260F92F96E9BB279395F6958795779567951A
S1131270B795F111F8CFFAF4BB0F11F460FF1BC05E
S11312806F5F7F4F8F4F9F4F16C0882311F096E9F1
S113129011C0772321F09EE8872F762F05C066239F
S11312A071F096E8862F70E060E02AF09A95660F58
S11312B0771F881FDAF7880F9695879597F9089511
S11312C0990F0008550FAA0BE0E8FEEF1616170653
S11312D0E807F907C0F012161306E407F50798F0BB
S11312E0621B730B840B950B39F40A2661F0232BD4
S11312F0242B252B21F408950A2609F4A140A69550
S11313008FEF811D811D089597F99F6780E870E034
S113131060E008959FEF80EC089500240A94161667
S1131320170618060906089500240A9412161306CF
S1131330140605060895092E0394000C11F488235D
S113134052F0BB0F40F4BF2B11F460FF04C06F5F79
S11313507F4F8F4F9F4F089557FD9058440F551F4F
S113136059F05F3F71F04795880F97FB991F61F023
S11313709F3F79F087950895121613061406551F9A
S1131380F2CF4695F1DF08C0161617061806991F06
S1131390F1CF86957105610508940895E894BB27FB
S11313A066277727CB0197F908958ADF08F48FEF32
S11313B008950BD0C0CFB1DF28F0B6DF18F0952325
S11313C009F0A2CFA7CF1124EACFC6DFA0F3959FDF
S11313D0D1F3950F50E0551F629FF001729FBB2718
S11313E0F00DB11D639FAA27F00DB11DAA1F649FC4
S11313F06627B00DA11D661F829F2227B00DA11D77
S1131400621F739FB00DA11D621F839FA00D611DFC
S1131410221F749F3327A00D611D231F849F600D1D
S1131420211D822F762F6A2F11249F5750408AF056
S1131430E1F088234AF0EE0FFF1FBB1F661F771FE2
S1131440881F91505040A9F79E3F510570F05CCF22
S1131450A6CF5F3FECF3983EDCF3869577956795CE
S1131460B795F795E7959F5FC1F7FE2B880F911D00
S11314709695879597F90895629FD001739FF0011F
S1131480829FE00DF11D649FE00DF11D929FF00D10
S1131490839FF00D749FF00D659FF00D9927729F47
S11314A0B00DE11DF91F639FB00DE11DF91FBD01D2
S11314B0CF0111240895AA1BBB1B51E107C0AA1F29
S11314C0BB1FA617B70710F0A61BB70B881F991FE1
S11314D05A95A9F780959095BC01CD01089597FB85
S11314E0092E05260ED057FD04D014D00AD0001CB6
S11314F038F450954095309521953F4F4F4F5F4FAD
S11315000895F6F790958095709561957F4F8F4F6C
S11315109F4F0895A1E21A2EAA1BBB1BFD010DC00B
S1131520AA1FBB1FEE1FFF1FA217B307E407F5078F
S113153020F0A21BB30BE40BF50B661F771F881F6B
S1131540991F1A9469F760957095809590959B0101
S10F1550AC01BD01CF010895F894FFCF59
S113155C00010203040506070809013C3C0032544F
S111156C6F6F206D616E79205461736B730094
S9030000FC
