:100000000C942A000C94F2050C9423060C944700DF
:100010000C9447000C9447000C9447000C94010783
:100020000C9447000C9447000C9447000C94470034
:100030000C9447000C9447000C9447000C94470024
:100040000C9447000C9447000C9447000C94470014
:100050000C94470011241FBECFE5D8E0DEBFCDBF12
:1000600010E0A0E6B0E0ECEBF3E102C005900D92E9
:10007000A237B107D9F710E0A2E7B0E001C01D92A6
:10008000A63CB107E1F70E94CF050C94DC090C9463
:10009000000081E061E041E00E94390181E062E01E
:1000A00041E00E94390180E06FEF0E94280108952D
:1000B000CF93DF93C82F262F8A3008F470C06AE0F0
:1000C0000E949309D82FC92F213061F581E063E0A8
:1000D00040E00E94CF01D295D07FDBBB81E062E09F
:1000E00041E00E94CF0189EF90E00197F1F700C055
:1000F000000081E062E040E00E94CF01C295C07F35
:10010000CBBB81E061E041E00E94CF01A9EFB0E00C
:100110001197F1F700C0000081E061E040E00E942B
:10012000CF014AC0222309F047C081E063E040E0EC
:100130000E94CF01D295D07FDBBB81E062E041E03D
:100140000E94CF0183E294EF0197F1F700C0000015
:1001500081E062E040E00E94CF01C295C07FCBBB4E
:1001600081E061E041E00E94CF01A3E2B4EF11978A
:10017000F1F700C0000081E061E040E00E94CF01A3
:1001800081E062E040E00E94CF018FE39DE0A3E0C8
:1001900081509040A040E1F700C000000DC081E018
:1001A00063E040E00E94CF01C295C07FCBBB81E0FD
:1001B00062E041E00E94CF01DF91CF9108953E9A25
:1001C0003F98389A3D98359A309A319A329A3398B6
:1001D000379A0895FC01369A86B184FFFDCF24B189
:1001E00035B184EF91E0289FA001299F500D389FE1
:1001F000500D1124852F8695869580831182089550
:1002000082E062E041E00E9439010895882341F0D4
:10021000813059F482E062E041E00E94CF0108950C
:1002200082E062E040E00E94CF010895CF93DF9327
:100230000F92CDB7DEB7198282E062E0AE014F5F68
:100240005F4F0E946D0289810F90DF91CF910895D9
:10025000813049F0813028F0823039F0833041F428
:1002600006C06ABB089567BB089564BB089561BB6F
:100270000895442309F441C0413009F07EC0813023
:10028000A9F0813030F08230F1F0833009F075C090
:1002900027C02AB381E090E0AC0102C0440F551F93
:1002A0006A95E2F7BA01622B6ABB089527B381E031
:1002B00090E0AC0102C0440F551F6A95E2F7BA0105
:1002C000622B67BB089524B381E090E0AC0102C0CB
:1002D000440F551F6A95E2F7BA01622B64BB08957B
:1002E00021B381E090E0AC0102C0440F551F6A9534
:1002F000E2F7BA01622B61BB08958130A9F0813029
:1003000028F08230F9F08330C1F52AC02AB381E0A9
:1003100090E0AC0102C0440F551F6A95E2F7BA01A4
:10032000609562236ABB089527B381E090E0AC0139
:1003300002C0440F551F6A95E2F7BA016095622327
:1003400067BB089524B381E090E0AC0102C0440F84
:10035000551F6A95E2F7BA016095622364BB089560
:1003600021B381E090E0AC0102C0440F551F6A95B3
:10037000E2F7BA016095622361BB0895813049F0CC
:10038000813028F0823039F0833041F406C06BBBF5
:10039000089568BB089565BB089562BB0895442322
:1003A00009F441C0413009F07EC08130A9F08130AC
:1003B00030F08230F1F0833009F075C027C02BB3E4
:1003C00081E090E0AC0102C0440F551F6A95E2F74E
:1003D000BA01622B6BBB089528B381E090E0AC01B9
:1003E00002C0440F551F6A95E2F7BA01622B68BB41
:1003F000089525B381E090E0AC0102C0440F551F81
:100400006A95E2F7BA01622B65BB089522B381E0D9
:1004100090E0AC0102C0440F551F6A95E2F7BA01A3
:10042000622B62BB08958130A9F0813028F08230C0
:10043000F9F08330C1F52AC02BB381E090E0AC0124
:1004400002C0440F551F6A95E2F7BA016095622316
:100450006BBB089528B381E090E0AC0102C0440F6B
:10046000551F6A95E2F7BA016095622368BB08954B
:1004700025B381E090E0AC0102C0440F551F6A959E
:10048000E2F7BA016095622365BB089522B381E06B
:1004900090E0AC0102C0440F551F6A95E2F7BA0123
:1004A0006095622362BB0895813059F0813028F055
:1004B000823059F0833081F40CC089B3FB01808312
:1004C000089586B3FB018083089583B3FB01808385
:1004D000089580B3FB01808308958130A1F08130BD
:1004E00028F08230E9F08330A1F527C089B390E08D
:1004F0009C0102C0359527956A95E2F7B9016170B4
:10050000FA016083089586B390E09C0102C035959E
:1005100027956A95E2F7B9016170FA016083089541
:1005200083B390E09C0102C0359527956A95E2F768
:10053000B9016170FA016083089580B390E09C0175
:1005400002C0359527956A95E2F7B9016170FA0105
:10055000608308958130A1F0813028F08230E9F085
:100560008330A1F527C02BB381E090E0AC0102C03D
:10057000440F551F6A95E2F7BA0162276BBB0895D5
:1005800028B381E090E0AC0102C0440F551F6A958A
:10059000E2F7BA01622768BB089525B381E090E0D5
:1005A000AC0102C0440F551F6A95E2F7BA016227F9
:1005B00065BB089522B381E090E0AC0102C0440F16
:1005C000551F6A95E2F7BA01622762BB089580E081
:1005D0000E9463030895CF93DF93C82FD62F0E9404
:1005E000790380EA0E9490038D2F0E9490038C2F44
:1005F0000E9490030E948603DF91CF910895CF93CC
:10060000C82F0E94790380EA0E9490038C2F0E94D9
:1006100090030E94790381EA0E9490030E94A9033B
:10062000C82F0E9486038C2FCF9108958FB78068C2
:100630008FBF08950E9416038BB780648BBF85B768
:10064000816085BF85B7826085BF08950E941603CB
:100650008BB780688BBF85B7846085BF85B788609E
:1006600085BF08950E9416038BB780688BBF84B73F
:100670008F7B84BF089582E067E041E00E943901EA
:100680000895882341F0813059F482E067E041E029
:100690000E94CF01089582E067E040E00E94CF0110
:1006A0000895CF93DF930F92CDB7DEB7198282E022
:1006B00067E0AE014F5F5F4F0E946D0289810F902E
:1006C000DF91CF91089596B7946096BF98E490B962
:1006D00011B8823031F0833031F0813031F4089A32
:1006E00004C0099A02C0089A099A86B7806486BF36
:1006F000089586B7806886BF86B7806286BF86B752
:10070000846086BF06B607FEFDCF089586B7806871
:1007100086BF86B7806186BF86B7846086BF08952E
:1007200083B986B7806886BF86B7846086BF06B601
:1007300007FEFDCF089586B7806886BF86B78460C0
:1007400086BF86B7806486BF06B607FEFDCF83B13D
:10075000089586B7806886BF86B7846086BF06B670
:1007600007FEFDCF83B1089581B1887F0895CF93AF
:10077000C82F81E061E040E00E94CF0181E062E0AB
:1007800040E00E94CF0181E063E040E00E94CF01A1
:100790008BB39C2F907F8F70892B8BBB81E063E0A4
:1007A00041E00E94CF018FE99FE00197F1F700C07F
:1007B000000081E063E040E00E94CF018BB3C2956E
:1007C000C07F8F70C82BCBBB81E063E041E00E940B
:1007D000CF018FE99FE00197F1F700C0000081E0B1
:1007E00063E040E00E94CF018FE19EE40197F1F7C2
:1007F00000C00000CF91089581E061E041E00E94D7
:10080000390181E062E041E00E94390181E063E06A
:1008100041E00E94390180E064E041E00E9439013A
:1008200080E065E041E00E94390180E066E041E05F
:100830000E94390180E067E041E00E9439018FEFBA
:1008400091EEA4E081509040A040E1F700C000008C
:1008500083E30E94B70382E30E94B70388E20E9409
:10086000B7038EE00E94B70381E00E94B70382E0E5
:100870000E94B7030895CF93C82F81E061E041E063
:100880000E94CF0181E062E040E00E94CF0181E060
:1008900063E040E00E94CF018C2F807F8BBB81E022
:1008A00063E041E00E94CF018FE99FE00197F1F7FB
:1008B00000C0000081E063E040E00E94CF01C295EB
:1008C000C07FCBBB81E063E041E00E94CF018FE9B4
:1008D0009FE00197F1F700C0000081E063E040E095
:1008E0000E94CF018FE19EE40197F1F700C0000064
:1008F000CF9108950F931F93CF938C01FC018081BA
:10090000882351F0C0E00E943B04CF5FF801EC0F58
:10091000F11D80818823B9F7CF911F910F91089520
:1009200081E00E94B7030895CF93DF9300D0CDB745
:10093000DEB790E8998390EC9A83FE01E80FF11DF1
:100940008181860F0E94B7030F900F90DF91CF91A6
:1009500008954F925F926F927F928F929F92AF9283
:10096000BF92CF92DF92EF92FF92CF93DF936B0112
:100970007C0199235CF48DE20E943B04F094E094A6
:10098000D094C094C11CD11CE11CF11CC114D10431
:10099000E104F10409F44FC081E090E0A0E0B0E090
:1009A0000F2EFAE08F2EF0E09F2EF0E0AF2EF0E059
:1009B000BF2EF02DBC01CD01A50194010E94740948
:1009C0002B013C01C701B6010E949F09DC01CB014C
:1009D000840D951DA61DB71DC22ED32EE42EF52E17
:1009E000C114D104E104F10429F782309105A10575
:1009F000B1050CF10F2EFAE04F2EF0E05F2EF0E083
:100A00006F2EF0E07F2EF02DBC01CD01A3019201ED
:100A10000E949F09822EC32EC42FD52F862F805D62
:100A20000E943B04882D9C2DAC2FBD2F8230910558
:100A3000A105B1054CF7DF91CF91FF90EF90DF90CA
:100A4000CF90BF90AF909F908F907F906F905F906E
:100A50004F9008958F929F92AF92BF92CF92DF9264
:100A6000EF92FF926B017C0120E030E0A9010E942F
:100A7000260888233CF48DE20E943B04F7FAF094A8
:100A8000F7F8F094C701B60120E030E0A9010E9418
:100A90000D0918167CF4C701B60120E030E040E8EB
:100AA0005FE30E94260888232CF460E070E0CB010D
:100AB0000E94A904C701B6010E942F084B015C01E6
:100AC0000E94A9048EE20E943B04C501B4010E9469
:100AD0005B089B01AC01C701B6010E94C107462F0C
:100AE000572F682F792FCB01BA0120E030E048EC76
:100AF00052E40E9411090E942A080E94A904FF9052
:100B0000EF90DF90CF90BF90AF909F908F9008951F
:100B100083E063E041E00E943901089583E063E0EF
:100B200041E00E94CF01089583E063E040E00E942D
:100B3000CF01089583E063E00E94AA02089581E056
:100B400060E040E00E9439010895CF93DF930F9257
:100B5000CDB7DEB7198281E060E0AE014F5F5F4F35
:100B60000E946D0289810F90DF91CF91089583E0FB
:100B700062E040E00E9439010895CF93DF930F9225
:100B8000CDB7DEB7198283E062E0AE014F5F5F4F01
:100B90000E946D0289810F90DF91CF9108950E948C
:100BA000F3060E9488050E9466070E9400010E94C9
:100BB0003B030E941A030E9426030E9449000E94E0
:100BC0009F050E94B7050E94E70280E00E94FF0295
:100BD0008C3329F080E00E94FF02809361000E9424
:100BE000C306FDCF1F920F920FB60F9211242F93C1
:100BF0003F934F935F936F937F938F939F93AF93A5
:100C0000BF93EF93FF931092600080916100843254
:100C100048F00E94BD058823E1F78091610085506E
:100C200080936100FF91EF91BF91AF919F918F9160
:100C30007F916F915F914F913F912F910F900FBED8
:100C40000F901F9018951F920F920FB60F921124BC
:100C50002F933F934F935F936F937F938F939F93C4
:100C6000AF93BF93EF93FF93109260008091610068
:100C70008B3448F40E94A5058823E1F78091610038
:100C80008B5F80936100FF91EF91BF91AF919F9136
:100C90008F917F916F915F914F913F912F910F9025
:100CA0000FBE0F901F901895EF92FF920F931F9316
:100CB000CF93DC017B018A018091800090918100BB
:100CC0000097F9F0E7E8F0E041E050E0842FBA0146
:100CD000208131812115310541F04F5F5F4F3796FB
:100CE0004B30510599F7C82F01C0C42FCA3061F4A9
:100CF00082E690E00E947A0481E0809372008C2F5B
:100D000016C060E070E080E09B01220F331F220FCD
:100D1000331F220F331F261B370BF901E058FF4FFB
:100D2000B183A083F382E282158304831682CF917C
:100D30001F910F91FF90EF90089590E0FC01EE0F4E
:100D4000FF1FEE0FFF1FEE0FFF1FE81BF90BE05810
:100D5000FF4F208131812115310511F480E0089584
:100D6000FC01EE0FFF1FEE0FFF1FEE0FFF1FE81B32
:100D7000F90BE058FF4F1182108215821482138202
:100D8000128216820895EF92FF921F93CF93DF9302
:100D9000C6E8D0E00F2EFAEFEF2EFFEFFF2EF02D7A
:100DA000EC0EFD1E10E08881882379F0D701ED91CB
:100DB000FC910995888181508883F7018481958110
:100DC000009719F4812F0E949D061F5F279687E0E8
:100DD00090E0E80EF91E1A3031F7DF91CF911F91A4
:100DE000FF90EF900895CF93C0E08C2F0E949D0656
:100DF000CF5FCA30D1F7109272000E946C07CF917A
:100E000008951F920F920FB60F9211242F933F93C4
:100E10004F935F936F937F938F939F93AF93BF9302
:100E2000CF93DF93EF93FF93809175008F5F809353
:100E30007500843681F410927500C3E7D0E0CE01CE
:100E40000E946907809175008F5F809375008A30DA
:100E5000B0F310927500609160008091610090E0A5
:100E600070E00E945800E0E8F0E0DF01169626EC02
:100E700030E080819181009789F082819381009791
:100E800051F48C918F5F8C9384819581009731F020
:100E90009383828303C00197938382833796179647
:100EA000E217F30731F7FF91EF91DF91CF91BF91F7
:100EB000AF919F918F917F916F915F914F913F91F2
:100EC0002F910F900FBE0F901F9018950E94DF007A
:100ED00008950E94EA00089589B7806189BF8FB79D
:100EE00080688FBF8FB58FBD1DBC1CBC80E190E0BA
:100EF0009BBD8ABD8DE08EBD089590937D0080934B
:100F00007C00089583B783BF89B7816089BF8FB79D
:100F100080688FBF089583B7856083BF089583B7C6
:100F200083BF12BE83B7856083BF089590937F000F
:100F300080937E00089528EE33E040E050E00E9468
:100F40007409DC01CB01689415F8B695A7959795BF
:100F500087951694D1F7492F5A2F6B2F77278195B4
:100F600080937B0082BFDB01CA010196A11DB11DE8
:100F70008093770090937800A0937900B0937A00E3
:100F800008955058BB27AA270ED00DC1FED030F0CF
:100F900003D120F031F49F3F11F41EF4F3C00EF49E
:100FA000E095E7FBE9C0E92F0FD180F3BA1762079C
:100FB00073078407950718F071F49EF527C10EF4A6
:100FC000E0950B2EBA2FA02D0B01B90190010C0159
:100FD000CA01A0011124FF27591B99F0593F50F471
:100FE000503E68F11A16F040A22F232F342F4427C9
:100FF000585FF3CF469537952795A795F0405395C1
:10100000C9F77EF41F16BA0B620B730B840BBAF090
:101010009150A1F0FF0FBB1F661F771F881FC2F7FB
:101020000EC0BA0F621F731F841F48F4879577950F
:101030006795B795F7959E3F08F0B3CF9395880FC6
:1010400008F09927EE0F97958795089571D008F4C9
:1010500081E0089504D06894B111D9C00895BCD03E
:1010600088F09F5790F0B92F9927B751A0F0D1F091
:10107000660F771F881F991F1AF0BA95C9F712C01B
:10108000B13081F0C3D0B1E00895C0C0672F782F90
:101090008827B85F39F0B93FCCF386957795679587
:1010A000B395D9F73EF490958095709561957F4FF3
:1010B0008F4F9F4F0895E89409C097FB3EF4909599
:1010C0008095709561957F4F8F4F9F4F9923A9F021
:1010D000F92F96E9BB279395F695879577956795B0
:1010E000B795F111F8CFFAF4BB0F11F460FF1BC0F4
:1010F0006F5F7F4F8F4F9F4F16C0882311F096E987
:1011000011C0772321F09EE8872F762F05C0662334
:1011100071F096E8862F70E060E02AF09A95660FED
:10112000771F881FDAF7880F9695879597F90895A6
:10113000990F0008550FAA0BE0E8FEEF16161706E8
:10114000E807F907C0F012161306E407F50798F050
:10115000621B730B840B950B39F40A2661F0232B69
:10116000242B252B21F408950A2609F4A140A695E5
:101170008FEF811D811D089597F99F6780E870E0CA
:1011800060E008959FEF80EC089500240A941616FD
:10119000170618060906089500240A941216130665
:1011A000140605060895092E0394000C11F48823F3
:1011B00052F0BB0F40F4BF2B11F460FF04C06F5F0F
:1011C0007F4F8F4F9F4F089557FD9058440F551FE5
:1011D00059F05F3F71F04795880F97FB991F61F0B9
:1011E0009F3F79F087950895121613061406551F30
:1011F000F2CF4695F1DF08C0161617061806991F9C
:10120000F1CF86957105610508940895E894BB2790
:1012100066277727CB0197F908958ADF08F48FEFC7
:1012200008950BD0C0CFB1DF28F0B6DF18F09523BA
:1012300009F0A2CFA7CF1124EACFC6DFA0F3959F74
:10124000D1F3950F50E0551F629FF001729FBB27AD
:10125000F00DB11D639FAA27F00DB11DAA1F649F59
:101260006627B00DA11D661F829F2227B00DA11D0C
:10127000621F739FB00DA11D621F839FA00D611D92
:10128000221F749F3327A00D611D231F849F600DB3
:10129000211D822F762F6A2F11249F5750408AF0EC
:1012A000E1F088234AF0EE0FFF1FBB1F661F771F78
:1012B000881F91505040A9F79E3F510570F05CCFB8
:1012C000A6CF5F3FECF3983EDCF386957795679564
:1012D000B795F795E7959F5FC1F7FE2B880F911D96
:1012E0009695879597F90895629FD001739FF001B5
:1012F000829FE00DF11D649FE00DF11D929FF00DA6
:10130000839FF00D749FF00D659FF00D9927729FDC
:10131000B00DE11DF91F639FB00DE11DF91FBD0167
:10132000CF0111240895991B79E004C0991F9617E5
:1013300008F0961B881F7A95C9F78095089597FB4A
:10134000092E05260ED057FD04D014D00AD0001C5B
:1013500038F450954095309521953F4F4F4F5F4F52
:101360000895F6F790958095709561957F4F8F4F12
:101370009F4F0895A1E21A2EAA1BBB1BFD010DC0B1
:10138000AA1FBB1FEE1FFF1FA217B307E407F50735
:1013900020F0A21BB30BE40BF50B661F771F881F11
:1013A000991F1A9469F760957095809590959B01A7
:0C13B000AC01BD01CF010895F894FFCFFF
:1013BC00013C546F6F206D616E79205461736B73B7
:0213CC0000001F
:00000001FF
