S00C00006D61696E2E7372656373
S11300000C942A000C9447000C9447000C9447006D
S11300100C9447000C9447000C9447000C942A0558
S11300200C9447000C9447000C9447000C94470030
S11300300C9447000C9447000C9447000C94470020
S11300400C9447000C9447000C9447000C94470010
S11300500C94470011241FBECFE5D8E0DEBFCDBF0E
S113006010E0A0E6B0E0ECE5FFE002C005900D92E0
S1130070A037B107D9F710E0A0E7B0E001C01D92A6
S1130080AA38B107E1F70E9473040C94AC070C94EE
S1130090000081E061E041E00E94DD0081E062E077
S11300A041E00E94DD0080E06FEF0E94CC000895E3
S11300B0CF93C82F882341F51BBA81E062E041E069
S11300C00E94730189EF90E00197F1F700C00000EE
S11300D081E062E040E00E94730181E063E041E07E
S11300E00E9473011BBA81E061E041E00E94730148
S11300F089EF90E00197F1F700C0000081E061E032
S113010040E00E94730146C08A3088F181E063E0D8
S113011040E00E9473018C2F6AE00E946307C92F9C
S11301208295807F8BBB81E062E041E00E94730195
S113013089EF90E00197F1F700C0000081E062E0F0
S113014040E00E947301C295C07FCBBB81E061E0B7
S113015041E00E94730189EF90E00197F1F700C03C
S1130160000081E061E040E00E94730113C081E07F
S113017063E040E00E947301C295C07FCBBB81E085
S113018062E041E00E94730187EA91E60197F1F78A
S113019000C00000CF910895813049F0813028F0EB
S11301A0823039F0833041F406C06ABB089567BBDE
S11301B0089564BB089561BB0895442309F441C0C4
S11301C0413009F07EC08130A9F0813030F08230B6
S11301D0F1F0833009F075C027C02AB381E090E0C4
S11301E0AC0102C0440F551F6A95E2F7BA01622BB5
S11301F06ABB089527B381E090E0AC0102C0440FCC
S1130200551F6A95E2F7BA01622B67BB089524B3C0
S113021081E090E0AC0102C0440F551F6A95E2F7FB
S1130220BA01622B64BB089521B381E090E0AC0174
S113023002C0440F551F6A95E2F7BA01622B61BBF5
S113024008958130A9F0813028F08230F9F08330AC
S1130250C1F52AC02AB381E090E0AC0102C0440F8A
S1130260551F6A95E2F7BA01609562236ABB089547
S113027027B381E090E0AC0102C0440F551F6A959A
S1130280E2F7BA016095622367BB089524B381E065
S113029090E0AC0102C0440F551F6A95E2F7BA0121
S11302A06095622364BB089521B381E090E0AC01C2
S11302B002C0440F551F6A95E2F7BA0160956223A4
S11302C061BB0895813049F0813028F0823039F0E3
S11302D0833041F406C06BBB089568BB089565BBC9
S11302E0089562BB0895442309F441C0413009F0E4
S11302F07EC08130A9F0813030F08230F1F083305B
S113030009F075C027C02BB381E090E0AC0102C0B6
S1130310440F551F6A95E2F7BA01622B6BBB08952F
S113032028B381E090E0AC0102C0440F551F6A95E8
S1130330E2F7BA01622B68BB089525B381E090E02F
S1130340AC0102C0440F551F6A95E2F7BA01622B53
S113035065BB089522B381E090E0AC0102C0440F74
S1130360551F6A95E2F7BA01622B62BB089581308A
S1130370A9F0813028F08230F9F08330C1F52AC029
S11303802BB381E090E0AC0102C0440F551F6A9585
S1130390E2F7BA01609562236BBB089528B381E04C
S11303A090E0AC0102C0440F551F6A95E2F7BA0110
S11303B06095622368BB089525B381E090E0AC01A9
S11303C002C0440F551F6A95E2F7BA016095622393
S11303D065BB089522B381E090E0AC0102C0440FF4
S11303E0551F6A95E2F7BA016095622362BB0895CE
S11303F0813059F0813028F0823059F0833081F413
S11304000CC089B3FB018083089586B3FB0180830C
S1130410089583B3FB018083089580B3FB01808337
S113042008958130A1F0813028F08230E9F08330E2
S1130430A1F527C089B390E09C0102C035952795AA
S11304406A95E2F7B9016170FA016083089586B391
S113045090E09C0102C0359527956A95E2F7B901B1
S11304606170FA016083089583B390E09C0102C037
S1130470359527956A95E2F7B9016170FA016083B1
S1130480089580B390E09C0102C0359527956A9544
S1130490E2F7B9016170FA01608308958130A1F037
S11304A0813028F08230E9F08330A1F527C02BB3E6
S11304B081E090E0AC0102C0440F551F6A95E2F759
S11304C0BA0162276BBB089528B381E090E0AC01C8
S11304D002C0440F551F6A95E2F7BA01622768BB50
S11304E0089525B381E090E0AC0102C0440F551F8C
S11304F06A95E2F7BA01622765BB089522B381E0E9
S113050090E0AC0102C0440F551F6A95E2F7BA01AE
S1130510622762BB0895CF93C82F81E061E040E079
S11305200E94730181E062E040E00E94730181E077
S113053063E040E00E9473018BB39C2F907F8F7027
S1130540892B8BBB81E063E041E00E9473018FE95A
S11305509FE00197F1F700C0000081E063E040E014
S11305600E9473018BB3C295C07F8F70C82BCBBB25
S113057081E063E041E00E9473018FE99FE001970D
S1130580F1F700C0000081E063E040E00E947301E5
S11305908FE19EE40197F1F700C00000CF91089528
S11305A081E061E041E00E94DD0081E062E041E041
S11305B00E94DD0081E063E041E00E94DD0080E014
S11305C064E041E00E94DD0080E065E041E00E94DB
S11305D0DD0080E066E041E00E94DD0080E067E04D
S11305E041E00E94DD008FEF91EEA4E08150904045
S11305F0A040E1F700C0000083E30E948B0282E385
S11306000E948B0288E20E948B028EE00E948B0281
S113061081E00E948B0282E00E948B020895CF93B6
S1130620C82F81E061E041E00E94730181E062E053
S113063040E00E94730181E063E040E00E947301A6
S11306408C2F807F8BBB81E063E041E00E947301CB
S11306508FE99FE00197F1F700C0000081E063E0BB
S113066040E00E947301C295C07FCBBB81E063E090
S113067041E00E9473018FE99FE00197F1F700C008
S1130680000081E063E040E00E9473018FE19EE49A
S11306900197F1F700C00000CF9108950F931F93C5
S11306A0CF938C01FC018081882351F0C0E00E942B
S11306B00F03CF5FF801EC0FF11D80818823B9F798
S11306C0CF911F910F91089581E00E948B020895AC
S11306D0CF93DF9300D0CDB7DEB790E8998390EC49
S11306E09A83FE01E80FF11D8181860F0E948B021F
S11306F00F900F90DF91CF9108954F925F926F9278
S11307007F928F929F92AF92BF92CF92DF92EF929D
S1130710FF92CF93DF936B017C0199235CF48DE20C
S11307200E940F03F094E094D094C094C11CD11C97
S1130730E11CF11CC114D104E104F10409F44FC01B
S113074081E090E0A0E0B0E00F2EFAE08F2EF0E020
S11307509F2EF0E0AF2EF0E0BF2EF02DBC01CD01B6
S1130760A50194010E9444072B013C01C701B60175
S11307700E946F07DC01CB01840D951DA61DB71DDA
S1130780C22ED32EE42EF52EC114D104E104F104BB
S113079029F782309105A105B1050CF10F2EFAE07D
S11307A04F2EF0E05F2EF0E06F2EF0E07F2EF02D64
S11307B0BC01CD01A30192010E946F07822EC32EBA
S11307C0C42FD52F862F805D0E940F03882D9C2D6A
S11307D0AC2FBD2F82309105A105B1054CF7DF91F7
S11307E0CF91FF90EF90DF90CF90BF90AF909F900C
S11307F08F907F906F905F904F9008958F929F920B
S1130800AF92BF92CF92DF92EF92FF926B017C0185
S113081020E030E0A9010E94F60588233CF48DE233
S11308200E940F03F7FAF094F7F8F094C701B601A9
S113083020E030E0A9010E94DD0618167CF4C7010F
S1130840B60120E030E040E85FE30E94F60588232B
S11308502CF460E070E0CB010E947D03C701B60177
S11308600E94FF054B015C010E947D038EE20E9401
S11308700F03C501B4010E942B069B01AC01C70103
S1130880B6010E949105462F572F682F792FCB016F
S1130890BA0120E030E048EC52E40E94E1060E94F4
S11308A0FA050E947D03FF90EF90DF90CF90BF90F8
S11308B0AF909F908F90089583E063E041E00E94A1
S11308C0DD00089583E063E041E00E947301089530
S11308D083E063E040E00E947301089583E063E0F5
S11308E00E944E0208950E9449008CE290E00E940A
S11308F05800FBCFCF93DF93EC01DB01BA01809169
S1130900750090917600009741F180917C00909160
S11309107D00009781F0809183009091840000977E
S113092071F080918A0090918B00009769F483E0C4
S113093023E030E007C081E021E030E003C082E042
S113094022E030E0833061F480E690E00E944E03C0
S113095081E08093700083E016C020E030E080E006
S1130960A901440F551F440F551F440F551F421B27
S1130970530BFA01EB58FF4FD183C083B383A28397
S1130980758364831682DF91CF91089590E0FC0112
S1130990EE0FFF1FEE0FFF1FEE0FFF1FE81BF90BFB
S11309A0EB58FF4F208131812115310511F480E08E
S11309B00895FC01EE0FFF1FEE0FFF1FEE0FFF1F48
S11309C0E81BF90BEB58FF4F118210821582148239
S11309D01382128216820895EF92FF921F93CF938F
S11309E0DF93CBE7D0E00F2EFAEFEF2EFFEFFF2ED1
S11309F0F02DEC0EFD1E10E08881882379F0D701DC
S1130A00ED91FC910995888181508883F701848157
S1130A109581009719F4812F0E94C6041F5F2796C1
S1130A2087E090E0E80EF91E133031F7DF91CF91A3
S1130A301F91FF90EF90089580E00E94C60481E02A
S1130A400E94C60482E00E94C604109270000E94B4
S1130A50690508951F920F920FB60F9211242F93D8
S1130A603F938F939F93AF93BF93CF93DF93EF9372
S1130A70FF93E5E7F0E0DF0116969F012B5E3F4F01
S1130A8080819181009789F082819381009751F44C
S1130A908C918F5F8C9384819581009731F093833F
S1130AA0828303C001979383828337961796E21754
S1130AB0F30731F7FF91EF91DF91CF91BF91AF91A0
S1130AC09F918F913F912F910F900FBE0F901F9088
S1130AD0189589B7806189BF8FB780688FBF8FB53C
S1130AE08FBD1DBC1CBC80E190E09BBD8ABD8DE028
S1130AF08EBD08959093720080937100089583B71A
S1130B0083BF12BE83B7856083BF089589B78160B0
S1130B1089BF0E947F0508959093740080937300A9
S1130B2008955058BB27AA270ED00DC1FED030F02F
S1130B3003D120F031F49F3F11F41EF4F3C00EF4FE
S1130B40E095E7FBE9C0E92F0FD180F3BA176207FC
S1130B5073078407950718F071F49EF527C10EF406
S1130B60E0950B2EBA2FA02D0B01B90190010C01B9
S1130B70CA01A0011124FF27591B99F0593F50F4D1
S1130B80503E68F11A16F040A22F232F342F442729
S1130B90585FF3CF469537952795A795F040539521
S1130BA0C9F77EF41F16BA0B620B730B840BBAF0F1
S1130BB09150A1F0FF0FBB1F661F771F881FC2F75C
S1130BC00EC0BA0F621F731F841F48F48795779570
S1130BD06795B795F7959E3F08F0B3CF9395880F27
S1130BE008F09927EE0F97958795089571D008F42A
S1130BF081E0089504D06894B111D9C00895BCD09F
S1130C0088F09F5790F0B92F9927B751A0F0D1F0F1
S1130C10660F771F881F991F1AF0BA95C9F712C07B
S1130C20B13081F0C3D0B1E00895C0C0672F782FF0
S1130C308827B85F39F0B93FCCF3869577956795E7
S1130C40B395D9F73EF490958095709561957F4F53
S1130C508F4F9F4F0895E89409C097FB3EF49095F9
S1130C608095709561957F4F8F4F9F4F9923A9F081
S1130C70F92F96E9BB279395F69587957795679510
S1130C80B795F111F8CFFAF4BB0F11F460FF1BC054
S1130C906F5F7F4F8F4F9F4F16C0882311F096E9E7
S1130CA011C0772321F09EE8872F762F05C0662395
S1130CB071F096E8862F70E060E02AF09A95660F4E
S1130CC0771F881FDAF7880F9695879597F9089507
S1130CD0990F0008550FAA0BE0E8FEEF1616170649
S1130CE0E807F907C0F012161306E407F50798F0B1
S1130CF0621B730B840B950B39F40A2661F0232BCA
S1130D00242B252B21F408950A2609F4A140A69545
S1130D108FEF811D811D089597F99F6780E870E02A
S1130D2060E008959FEF80EC089500240A9416165D
S1130D30170618060906089500240A9412161306C5
S1130D40140605060895092E0394000C11F4882353
S1130D5052F0BB0F40F4BF2B11F460FF04C06F5F6F
S1130D607F4F8F4F9F4F089557FD9058440F551F45
S1130D7059F05F3F71F04795880F97FB991F61F019
S1130D809F3F79F087950895121613061406551F90
S1130D90F2CF4695F1DF08C0161617061806991FFC
S1130DA0F1CF86957105610508940895E894BB27F1
S1130DB066277727CB0197F908958ADF08F48FEF28
S1130DC008950BD0C0CFB1DF28F0B6DF18F095231B
S1130DD009F0A2CFA7CF1124EACFC6DFA0F3959FD5
S1130DE0D1F3950F50E0551F629FF001729FBB270E
S1130DF0F00DB11D639FAA27F00DB11DAA1F649FBA
S1130E006627B00DA11D661F829F2227B00DA11D6C
S1130E10621F739FB00DA11D621F839FA00D611DF2
S1130E20221F749F3327A00D611D231F849F600D13
S1130E30211D822F762F6A2F11249F5750408AF04C
S1130E40E1F088234AF0EE0FFF1FBB1F661F771FD8
S1130E50881F91505040A9F79E3F510570F05CCF18
S1130E60A6CF5F3FECF3983EDCF3869577956795C4
S1130E70B795F795E7959F5FC1F7FE2B880F911DF6
S1130E809695879597F90895629FD001739FF00115
S1130E90829FE00DF11D649FE00DF11D929FF00D06
S1130EA0839FF00D749FF00D659FF00D9927729F3D
S1130EB0B00DE11DF91F639FB00DE11DF91FBD01C8
S1130EC0CF0111240895991B79E004C0991F961746
S1130ED008F0961B881F7A95C9F78095089597FBAB
S1130EE0092E05260ED057FD04D014D00AD0001CBC
S1130EF038F450954095309521953F4F4F4F5F4FB3
S1130F000895F6F790958095709561957F4F8F4F72
S1130F109F4F0895A1E21A2EAA1BBB1BFD010DC011
S1130F20AA1FBB1FEE1FFF1FA217B307E407F50795
S1130F3020F0A21BB30BE40BF50B661F771F881F71
S1130F40991F1A9469F760957095809590959B0107
S10F0F50AC01BD01CF010895F894FFCF5F
S1130F5C546F6F206D616E79205461736B73000054
S9030000FC
